{
  "_format": "hh-sol-artifact-1",
  "contractName": "Bank",
  "sourceName": "contracts/Bank.sol",
  "abi": [
    {
      "inputs": [],
      "stateMutability": "nonpayable",
      "type": "constructor"
    },
    {
      "inputs": [
        {
          "internalType": "bytes32",
          "name": "symbol",
          "type": "bytes32"
        },
        {
          "internalType": "address",
          "name": "tokenAddress",
          "type": "address"
        }
      ],
      "name": "AddWhitelistToken",
      "outputs": [],
      "stateMutability": "nonpayable",
      "type": "function"
    },
    {
      "inputs": [
        {
          "internalType": "uint256",
          "name": "amount",
          "type": "uint256"
        },
        {
          "internalType": "bytes32",
          "name": "symbol",
          "type": "bytes32"
        }
      ],
      "name": "DepositTokens",
      "outputs": [],
      "stateMutability": "nonpayable",
      "type": "function"
    },
    {
      "inputs": [
        {
          "internalType": "bytes32",
          "name": "symbol",
          "type": "bytes32"
        }
      ],
      "name": "GetBalance",
      "outputs": [
        {
          "internalType": "string",
          "name": "",
          "type": "string"
        }
      ],
      "stateMutability": "view",
      "type": "function"
    },
    {
      "inputs": [
        {
          "internalType": "bytes32",
          "name": "symbol",
          "type": "bytes32"
        }
      ],
      "name": "GetTokenBalance",
      "outputs": [
        {
          "internalType": "uint256",
          "name": "",
          "type": "uint256"
        }
      ],
      "stateMutability": "view",
      "type": "function"
    },
    {
      "inputs": [],
      "name": "GetWhitelistedSymbols",
      "outputs": [
        {
          "internalType": "bytes32[]",
          "name": "",
          "type": "bytes32[]"
        }
      ],
      "stateMutability": "view",
      "type": "function"
    },
    {
      "inputs": [
        {
          "internalType": "uint256",
          "name": "amount",
          "type": "uint256"
        }
      ],
      "name": "WithdrawEther",
      "outputs": [],
      "stateMutability": "nonpayable",
      "type": "function"
    },
    {
      "inputs": [
        {
          "internalType": "uint256",
          "name": "amount",
          "type": "uint256"
        },
        {
          "internalType": "bytes32",
          "name": "symbol",
          "type": "bytes32"
        }
      ],
      "name": "WithdrawTokens",
      "outputs": [],
      "stateMutability": "nonpayable",
      "type": "function"
    },
    {
      "inputs": [
        {
          "internalType": "address",
          "name": "",
          "type": "address"
        },
        {
          "internalType": "bytes32",
          "name": "",
          "type": "bytes32"
        }
      ],
      "name": "balances",
      "outputs": [
        {
          "internalType": "uint256",
          "name": "",
          "type": "uint256"
        }
      ],
      "stateMutability": "view",
      "type": "function"
    },
    {
      "inputs": [
        {
          "internalType": "bytes32",
          "name": "symbol",
          "type": "bytes32"
        }
      ],
      "name": "getWhitelistedTokenAddress",
      "outputs": [
        {
          "internalType": "address",
          "name": "",
          "type": "address"
        }
      ],
      "stateMutability": "view",
      "type": "function"
    },
    {
      "inputs": [
        {
          "internalType": "uint256",
          "name": "",
          "type": "uint256"
        }
      ],
      "name": "whitelistedSymbols",
      "outputs": [
        {
          "internalType": "bytes32",
          "name": "",
          "type": "bytes32"
        }
      ],
      "stateMutability": "view",
      "type": "function"
    },
    {
      "inputs": [
        {
          "internalType": "bytes32",
          "name": "",
          "type": "bytes32"
        }
      ],
      "name": "whitelistedTokens",
      "outputs": [
        {
          "internalType": "address",
          "name": "",
          "type": "address"
        }
      ],
      "stateMutability": "view",
      "type": "function"
    },
    {
      "stateMutability": "payable",
      "type": "receive"
    }
  ],
  "bytecode": "0x608060405234801561001057600080fd5b50336000806101000a81548173ffffffffffffffffffffffffffffffffffffffff021916908373ffffffffffffffffffffffffffffffffffffffff16021790555061135e806100606000396000f3fe6080604052600436106100a05760003560e01c80634762b976116100645780634762b9761461022a5780638c7bec9f14610267578063a27715d614610290578063aa3d9a15146102b9578063b176d0f0146102f6578063e8812788146103335761012e565b806304cd9a27146101335780631f14df691461015e578063335bca361461019b578063384db9fc146101d8578063454b7898146102015761012e565b3661012e5734600360003373ffffffffffffffffffffffffffffffffffffffff1673ffffffffffffffffffffffffffffffffffffffff16815260200190815260200160002060007f455448000000000000000000000000000000000000000000000000000000000081526020019081526020016000206000828254610125919061117d565b92505081905550005b600080fd5b34801561013f57600080fd5b50610148610370565b6040516101559190611043565b60405180910390f35b34801561016a57600080fd5b5061018560048036038101906101809190610c70565b6103c8565b6040516101929190611102565b60405180910390f35b3480156101a757600080fd5b506101c260048036038101906101bd9190610cd5565b6103ed565b6040516101cf9190611080565b60405180910390f35b3480156101e457600080fd5b506101ff60048036038101906101fa9190610d3a565b610535565b005b34801561020d57600080fd5b5061022860048036038101906102239190610d8c565b61071f565b005b34801561023657600080fd5b50610251600480360381019061024c9190610d3a565b61084d565b60405161025e9190611065565b60405180910390f35b34801561027357600080fd5b5061028e60048036038101906102899190610d8c565b610871565b005b34801561029c57600080fd5b506102b760048036038101906102b29190610cfe565b610a30565b005b3480156102c557600080fd5b506102e060048036038101906102db9190610cd5565b610b3d565b6040516102ed9190610fc8565b60405180910390f35b34801561030257600080fd5b5061031d60048036038101906103189190610cd5565b610b70565b60405161032a9190611102565b60405180910390f35b34801561033f57600080fd5b5061035a60048036038101906103559190610cd5565b610bca565b6040516103679190610fc8565b60405180910390f35b606060018054806020026020016040519081016040528092919081815260200182805480156103be57602002820191906000526020600020905b8154815260200190600101908083116103aa575b5050505050905090565b6003602052816000526040600020602052806000526040600020600091509150505481565b606060006002600084815260200190815260200160002060009054906101000a900473ffffffffffffffffffffffffffffffffffffffff1673ffffffffffffffffffffffffffffffffffffffff166370a08231336040518263ffffffff1660e01b815260040161045d9190610fc8565b60206040518083038186803b15801561047557600080fd5b505afa158015610489573d6000803e3d6000fd5b505050506040513d601f19601f820116820180604052508101906104ad9190610d63565b905060018111156104f6576040518060400160405280600181526020017f3100000000000000000000000000000000000000000000000000000000000000815250915050610530565b6040518060400160405280600181526020017f30000000000000000000000000000000000000000000000000000000000000008152509150505b919050565b80600360003373ffffffffffffffffffffffffffffffffffffffff1673ffffffffffffffffffffffffffffffffffffffff16815260200190815260200160002060007f455448000000000000000000000000000000000000000000000000000000000081526020019081526020016000205410156105e8576040517f08c379a00000000000000000000000000000000000000000000000000000000081526004016105df906110c2565b60405180910390fd5b80600360003373ffffffffffffffffffffffffffffffffffffffff1673ffffffffffffffffffffffffffffffffffffffff16815260200190815260200160002060007f45544800000000000000000000000000000000000000000000000000000000008152602001908152602001600020600082825461066891906111d3565b9250508190555060003373ffffffffffffffffffffffffffffffffffffffff168260405161069590610fb3565b60006040518083038185875af1925050503d80600081146106d2576040519150601f19603f3d011682016040523d82523d6000602084013e6106d7565b606091505b505090508061071b576040517f08c379a0000000000000000000000000000000000000000000000000000000008152600401610712906110a2565b60405180910390fd5b5050565b81600360003373ffffffffffffffffffffffffffffffffffffffff1673ffffffffffffffffffffffffffffffffffffffff1681526020019081526020016000206000838152602001908152602001600020600082825461077f919061117d565b925050819055506002600082815260200190815260200160002060009054906101000a900473ffffffffffffffffffffffffffffffffffffffff1673ffffffffffffffffffffffffffffffffffffffff166323b872dd3330856040518463ffffffff1660e01b81526004016107f693929190610fe3565b602060405180830381600087803b15801561081057600080fd5b505af1158015610824573d6000803e3d6000fd5b505050506040513d601f19601f820116820180604052508101906108489190610cac565b505050565b6001818154811061085d57600080fd5b906000526020600020016000915090505481565b81600360003373ffffffffffffffffffffffffffffffffffffffff1673ffffffffffffffffffffffffffffffffffffffff1681526020019081526020016000206000838152602001908152602001600020541015610904576040517f08c379a00000000000000000000000000000000000000000000000000000000081526004016108fb906110c2565b60405180910390fd5b81600360003373ffffffffffffffffffffffffffffffffffffffff1673ffffffffffffffffffffffffffffffffffffffff1681526020019081526020016000206000838152602001908152602001600020600082825461096491906111d3565b925050819055506002600082815260200190815260200160002060009054906101000a900473ffffffffffffffffffffffffffffffffffffffff1673ffffffffffffffffffffffffffffffffffffffff1663a9059cbb33846040518363ffffffff1660e01b81526004016109d992919061101a565b602060405180830381600087803b1580156109f357600080fd5b505af1158015610a07573d6000803e3d6000fd5b505050506040513d601f19601f82011682018060405250810190610a2b9190610cac565b505050565b60008054906101000a900473ffffffffffffffffffffffffffffffffffffffff1673ffffffffffffffffffffffffffffffffffffffff163373ffffffffffffffffffffffffffffffffffffffff1614610abe576040517f08c379a0000000000000000000000000000000000000000000000000000000008152600401610ab5906110e2565b60405180910390fd5b6001829080600181540180825580915050600190039060005260206000200160009091909190915055806002600084815260200190815260200160002060006101000a81548173ffffffffffffffffffffffffffffffffffffffff021916908373ffffffffffffffffffffffffffffffffffffffff1602179055505050565b60026020528060005260406000206000915054906101000a900473ffffffffffffffffffffffffffffffffffffffff1681565b6000600360003373ffffffffffffffffffffffffffffffffffffffff1673ffffffffffffffffffffffffffffffffffffffff1681526020019081526020016000206000838152602001908152602001600020549050919050565b60006002600083815260200190815260200160002060009054906101000a900473ffffffffffffffffffffffffffffffffffffffff169050919050565b600081359050610c16816112cc565b92915050565b600081519050610c2b816112e3565b92915050565b600081359050610c40816112fa565b92915050565b600081359050610c5581611311565b92915050565b600081519050610c6a81611311565b92915050565b60008060408385031215610c8357600080fd5b6000610c9185828601610c07565b9250506020610ca285828601610c31565b9150509250929050565b600060208284031215610cbe57600080fd5b6000610ccc84828501610c1c565b91505092915050565b600060208284031215610ce757600080fd5b6000610cf584828501610c31565b91505092915050565b60008060408385031215610d1157600080fd5b6000610d1f85828601610c31565b9250506020610d3085828601610c07565b9150509250929050565b600060208284031215610d4c57600080fd5b6000610d5a84828501610c46565b91505092915050565b600060208284031215610d7557600080fd5b6000610d8384828501610c5b565b91505092915050565b60008060408385031215610d9f57600080fd5b6000610dad85828601610c46565b9250506020610dbe85828601610c31565b9150509250929050565b6000610dd48383610e4d565b60208301905092915050565b610de981611207565b82525050565b6000610dfa8261112d565b610e048185611150565b9350610e0f8361111d565b8060005b83811015610e40578151610e278882610dc8565b9750610e3283611143565b925050600181019050610e13565b5085935050505092915050565b610e5681611225565b82525050565b610e6581611225565b82525050565b6000610e7682611138565b610e80818561116c565b9350610e90818560208601611259565b610e99816112bb565b840191505092915050565b6000610eb1603a8361116c565b91507f416464726573733a20756e61626c6520746f2073656e642076616c75652c207260008301527f6563697069656e74206d617920686176652072657665727465640000000000006020830152604082019050919050565b6000610f1760128361116c565b91507f496e73756666696369656e742066756e647300000000000000000000000000006000830152602082019050919050565b6000610f57601c8361116c565b91507f546869732066756e6374696f6e206973206e6f74207075626c696321000000006000830152602082019050919050565b6000610f97600083611161565b9150600082019050919050565b610fad8161124f565b82525050565b6000610fbe82610f8a565b9150819050919050565b6000602082019050610fdd6000830184610de0565b92915050565b6000606082019050610ff86000830186610de0565b6110056020830185610de0565b6110126040830184610fa4565b949350505050565b600060408201905061102f6000830185610de0565b61103c6020830184610fa4565b9392505050565b6000602082019050818103600083015261105d8184610def565b905092915050565b600060208201905061107a6000830184610e5c565b92915050565b6000602082019050818103600083015261109a8184610e6b565b905092915050565b600060208201905081810360008301526110bb81610ea4565b9050919050565b600060208201905081810360008301526110db81610f0a565b9050919050565b600060208201905081810360008301526110fb81610f4a565b9050919050565b60006020820190506111176000830184610fa4565b92915050565b6000819050602082019050919050565b600081519050919050565b600081519050919050565b6000602082019050919050565b600082825260208201905092915050565b600081905092915050565b600082825260208201905092915050565b60006111888261124f565b91506111938361124f565b9250827fffffffffffffffffffffffffffffffffffffffffffffffffffffffffffffffff038211156111c8576111c761128c565b5b828201905092915050565b60006111de8261124f565b91506111e98361124f565b9250828210156111fc576111fb61128c565b5b828203905092915050565b60006112128261122f565b9050919050565b60008115159050919050565b6000819050919050565b600073ffffffffffffffffffffffffffffffffffffffff82169050919050565b6000819050919050565b60005b8381101561127757808201518184015260208101905061125c565b83811115611286576000848401525b50505050565b7f4e487b7100000000000000000000000000000000000000000000000000000000600052601160045260246000fd5b6000601f19601f8301169050919050565b6112d581611207565b81146112e057600080fd5b50565b6112ec81611219565b81146112f757600080fd5b50565b61130381611225565b811461130e57600080fd5b50565b61131a8161124f565b811461132557600080fd5b5056fea2646970667358221220252ba103161aea259000aeab6ac82cee82ccca49a5ce0d1ad8fbe5a05a505d2064736f6c63430008000033",
  "linkReferences": {},
  "deployedLinkReferences": {}
}